{
  "_format": "hh-sol-artifact-1",
  "contractName": "Token",
  "sourceName": "contracts/TokenFactory.sol",
  "abi": [
    {
      "inputs": [
        {
          "internalType": "string",
          "name": "_name",
          "type": "string"
        },
        {
          "internalType": "string",
          "name": "_symbol",
          "type": "string"
        },
        {
          "internalType": "string",
          "name": "_description",
          "type": "string"
        },
        {
          "internalType": "string",
          "name": "_imageUrl",
          "type": "string"
        },
        {
          "internalType": "address",
          "name": "_creator",
          "type": "address"
        }
      ],
      "stateMutability": "nonpayable",
      "type": "constructor"
    },
    {
      "anonymous": false,
      "inputs": [
        {
          "indexed": true,
          "internalType": "address",
          "name": "buyer",
          "type": "address"
        },
        {
          "indexed": false,
          "internalType": "uint256",
          "name": "tokens",
          "type": "uint256"
        },
        {
          "indexed": false,
          "internalType": "uint256",
          "name": "ethSpent",
          "type": "uint256"
        }
      ],
      "name": "Buy",
      "type": "event"
    },
    {
      "anonymous": false,
      "inputs": [
        {
          "indexed": true,
          "internalType": "address",
          "name": "seller",
          "type": "address"
        },
        {
          "indexed": false,
          "internalType": "uint256",
          "name": "tokens",
          "type": "uint256"
        },
        {
          "indexed": false,
          "internalType": "uint256",
          "name": "ethReceived",
          "type": "uint256"
        }
      ],
      "name": "Sell",
      "type": "event"
    },
    {
      "inputs": [],
      "name": "K",
      "outputs": [
        {
          "internalType": "uint256",
          "name": "",
          "type": "uint256"
        }
      ],
      "stateMutability": "view",
      "type": "function"
    },
    {
      "inputs": [
        {
          "internalType": "address",
          "name": "",
          "type": "address"
        }
      ],
      "name": "balanceOf",
      "outputs": [
        {
          "internalType": "uint256",
          "name": "",
          "type": "uint256"
        }
      ],
      "stateMutability": "view",
      "type": "function"
    },
    {
      "inputs": [],
      "name": "buy",
      "outputs": [],
      "stateMutability": "payable",
      "type": "function"
    },
    {
      "inputs": [],
      "name": "creator",
      "outputs": [
        {
          "internalType": "address",
          "name": "",
          "type": "address"
        }
      ],
      "stateMutability": "view",
      "type": "function"
    },
    {
      "inputs": [],
      "name": "description",
      "outputs": [
        {
          "internalType": "string",
          "name": "",
          "type": "string"
        }
      ],
      "stateMutability": "view",
      "type": "function"
    },
    {
      "inputs": [
        {
          "internalType": "uint256",
          "name": "supply",
          "type": "uint256"
        }
      ],
      "name": "getPrice",
      "outputs": [
        {
          "internalType": "uint256",
          "name": "",
          "type": "uint256"
        }
      ],
      "stateMutability": "pure",
      "type": "function"
    },
    {
      "inputs": [],
      "name": "imageUrl",
      "outputs": [
        {
          "internalType": "string",
          "name": "",
          "type": "string"
        }
      ],
      "stateMutability": "view",
      "type": "function"
    },
    {
      "inputs": [],
      "name": "name",
      "outputs": [
        {
          "internalType": "string",
          "name": "",
          "type": "string"
        }
      ],
      "stateMutability": "view",
      "type": "function"
    },
    {
      "inputs": [
        {
          "internalType": "uint256",
          "name": "amount",
          "type": "uint256"
        }
      ],
      "name": "sell",
      "outputs": [],
      "stateMutability": "nonpayable",
      "type": "function"
    },
    {
      "inputs": [],
      "name": "symbol",
      "outputs": [
        {
          "internalType": "string",
          "name": "",
          "type": "string"
        }
      ],
      "stateMutability": "view",
      "type": "function"
    },
    {
      "inputs": [],
      "name": "totalSupply",
      "outputs": [
        {
          "internalType": "uint256",
          "name": "",
          "type": "uint256"
        }
      ],
      "stateMutability": "view",
      "type": "function"
    }
  ],
  "bytecode": "0x608060405234801561001057600080fd5b5060405161138238038061138283398181016040528101906100329190610290565b8460009081610041919061059c565b508360019081610051919061059c565b508260029081610061919061059c565b508160039081610071919061059c565b5080600460006101000a81548173ffffffffffffffffffffffffffffffffffffffff021916908373ffffffffffffffffffffffffffffffffffffffff160217905550505050505061066e565b6000604051905090565b600080fd5b600080fd5b600080fd5b600080fd5b6000601f19601f8301169050919050565b7f4e487b7100000000000000000000000000000000000000000000000000000000600052604160045260246000fd5b610124826100db565b810181811067ffffffffffffffff82111715610143576101426100ec565b5b80604052505050565b60006101566100bd565b9050610162828261011b565b919050565b600067ffffffffffffffff821115610182576101816100ec565b5b61018b826100db565b9050602081019050919050565b60005b838110156101b657808201518184015260208101905061019b565b60008484015250505050565b60006101d56101d084610167565b61014c565b9050828152602081018484840111156101f1576101f06100d6565b5b6101fc848285610198565b509392505050565b600082601f830112610219576102186100d1565b5b81516102298482602086016101c2565b91505092915050565b600073ffffffffffffffffffffffffffffffffffffffff82169050919050565b600061025d82610232565b9050919050565b61026d81610252565b811461027857600080fd5b50565b60008151905061028a81610264565b92915050565b600080600080600060a086880312156102ac576102ab6100c7565b5b600086015167ffffffffffffffff8111156102ca576102c96100cc565b5b6102d688828901610204565b955050602086015167ffffffffffffffff8111156102f7576102f66100cc565b5b61030388828901610204565b945050604086015167ffffffffffffffff811115610324576103236100cc565b5b61033088828901610204565b935050606086015167ffffffffffffffff811115610351576103506100cc565b5b61035d88828901610204565b925050608061036e8882890161027b565b9150509295509295909350565b600081519050919050565b7f4e487b7100000000000000000000000000000000000000000000000000000000600052602260045260246000fd5b600060028204905060018216806103cd57607f821691505b6020821081036103e0576103df610386565b5b50919050565b60008190508160005260206000209050919050565b60006020601f8301049050919050565b600082821b905092915050565b6000600883026104487fffffffffffffffffffffffffffffffffffffffffffffffffffffffffffffffff8261040b565b610452868361040b565b95508019841693508086168417925050509392505050565b6000819050919050565b6000819050919050565b600061049961049461048f8461046a565b610474565b61046a565b9050919050565b6000819050919050565b6104b38361047e565b6104c76104bf826104a0565b848454610418565b825550505050565b600090565b6104dc6104cf565b6104e78184846104aa565b505050565b5b8181101561050b576105006000826104d4565b6001810190506104ed565b5050565b601f82111561055057610521816103e6565b61052a846103fb565b81016020851015610539578190505b61054d610545856103fb565b8301826104ec565b50505b505050565b600082821c905092915050565b600061057360001984600802610555565b1980831691505092915050565b600061058c8383610562565b9150826002028217905092915050565b6105a58261037b565b67ffffffffffffffff8111156105be576105bd6100ec565b5b6105c882546103b5565b6105d382828561050f565b600060209050601f83116001811461060657600084156105f4578287015190505b6105fe8582610580565b865550610666565b601f198416610614866103e6565b60005b8281101561063c57848901518255600182019150602085019450602081019050610617565b868310156106595784890151610655601f891682610562565b8355505b6001600288020188555050505b505050505050565b610d058061067d6000396000f3fe60806040526004361061009c5760003560e01c806395d89b411161006457806395d89b411461018a578063a6f2ae3a146101b5578063a932492f146101bf578063aba83150146101ea578063e4849b3214610215578063e75722301461023e5761009c565b806302d05d3f146100a157806306fdde03146100cc57806318160ddd146100f757806370a08231146101225780637284e4161461015f575b600080fd5b3480156100ad57600080fd5b506100b661027b565b6040516100c3919061087d565b60405180910390f35b3480156100d857600080fd5b506100e16102a1565b6040516100ee9190610928565b60405180910390f35b34801561010357600080fd5b5061010c61032f565b6040516101199190610963565b60405180910390f35b34801561012e57600080fd5b50610149600480360381019061014491906109af565b610335565b6040516101569190610963565b60405180910390f35b34801561016b57600080fd5b5061017461034d565b6040516101819190610928565b60405180910390f35b34801561019657600080fd5b5061019f6103db565b6040516101ac9190610928565b60405180910390f35b6101bd610469565b005b3480156101cb57600080fd5b506101d46105ad565b6040516101e19190610963565b60405180910390f35b3480156101f657600080fd5b506101ff6105c0565b60405161020c9190610928565b60405180910390f35b34801561022157600080fd5b5061023c60048036038101906102379190610a08565b61064e565b005b34801561024a57600080fd5b5061026560048036038101906102609190610a08565b61080d565b6040516102729190610963565b60405180910390f35b600460009054906101000a900473ffffffffffffffffffffffffffffffffffffffff1681565b600080546102ae90610a64565b80601f01602080910402602001604051908101604052809291908181526020018280546102da90610a64565b80156103275780601f106102fc57610100808354040283529160200191610327565b820191906000526020600020905b81548152906001019060200180831161030a57829003601f168201915b505050505081565b60055481565b60066020528060005260406000206000915090505481565b6002805461035a90610a64565b80601f016020809104026020016040519081016040528092919081815260200182805461038690610a64565b80156103d35780601f106103a8576101008083540402835291602001916103d3565b820191906000526020600020905b8154815290600101906020018083116103b657829003601f168201915b505050505081565b600180546103e890610a64565b80601f016020809104026020016040519081016040528092919081815260200182805461041490610a64565b80156104615780601f1061043657610100808354040283529160200191610461565b820191906000526020600020905b81548152906001019060200180831161044457829003601f168201915b505050505081565b600034116104ac576040517f08c379a00000000000000000000000000000000000000000000000000000000081526004016104a390610ae1565b60405180910390fd5b60006104b960055461080d565b905060006001826104ca9190610b30565b670de0b6b3a7640000346104de9190610b64565b6104e89190610bd5565b905080600560008282546104fc9190610b30565b9250508190555080600660003373ffffffffffffffffffffffffffffffffffffffff1673ffffffffffffffffffffffffffffffffffffffff16815260200190815260200160002060008282546105529190610b30565b925050819055503373ffffffffffffffffffffffffffffffffffffffff167f1cbc5ab135991bd2b6a4b034a04aa2aa086dac1371cb9b16b8b5e2ed6b036bed82346040516105a1929190610c06565b60405180910390a25050565b6ec097ce7bc90715b34b9f100000000081565b600380546105cd90610a64565b80601f01602080910402602001604051908101604052809291908181526020018280546105f990610a64565b80156106465780601f1061061b57610100808354040283529160200191610646565b820191906000526020600020905b81548152906001019060200180831161062957829003601f168201915b505050505081565b80600660003373ffffffffffffffffffffffffffffffffffffffff1673ffffffffffffffffffffffffffffffffffffffff1681526020019081526020016000205410156106d0576040517f08c379a00000000000000000000000000000000000000000000000000000000081526004016106c790610c7b565b60405180910390fd5b60006106dd60055461080d565b90506000670de0b6b3a764000082846106f69190610b64565b6107009190610bd5565b905082600560008282546107149190610c9b565b9250508190555082600660003373ffffffffffffffffffffffffffffffffffffffff1673ffffffffffffffffffffffffffffffffffffffff168152602001908152602001600020600082825461076a9190610c9b565b925050819055503373ffffffffffffffffffffffffffffffffffffffff166108fc829081150290604051600060405180830381858888f193505050501580156107b7573d6000803e3d6000fd5b503373ffffffffffffffffffffffffffffffffffffffff167fed7a144fad14804d5c249145e3e0e2b63a9eb455b76aee5bc92d711e9bba3e4a8483604051610800929190610c06565b60405180910390a2505050565b60006ec097ce7bc90715b34b9f1000000000828361082b9190610b64565b6108359190610bd5565b9050919050565b600073ffffffffffffffffffffffffffffffffffffffff82169050919050565b60006108678261083c565b9050919050565b6108778161085c565b82525050565b6000602082019050610892600083018461086e565b92915050565b600081519050919050565b600082825260208201905092915050565b60005b838110156108d25780820151818401526020810190506108b7565b60008484015250505050565b6000601f19601f8301169050919050565b60006108fa82610898565b61090481856108a3565b93506109148185602086016108b4565b61091d816108de565b840191505092915050565b6000602082019050818103600083015261094281846108ef565b905092915050565b6000819050919050565b61095d8161094a565b82525050565b60006020820190506109786000830184610954565b92915050565b600080fd5b61098c8161085c565b811461099757600080fd5b50565b6000813590506109a981610983565b92915050565b6000602082840312156109c5576109c461097e565b5b60006109d38482850161099a565b91505092915050565b6109e58161094a565b81146109f057600080fd5b50565b600081359050610a02816109dc565b92915050565b600060208284031215610a1e57610a1d61097e565b5b6000610a2c848285016109f3565b91505092915050565b7f4e487b7100000000000000000000000000000000000000000000000000000000600052602260045260246000fd5b60006002820490506001821680610a7c57607f821691505b602082108103610a8f57610a8e610a35565b5b50919050565b7f53656e642045544820746f2062757920746f6b656e7300000000000000000000600082015250565b6000610acb6016836108a3565b9150610ad682610a95565b602082019050919050565b60006020820190508181036000830152610afa81610abe565b9050919050565b7f4e487b7100000000000000000000000000000000000000000000000000000000600052601160045260246000fd5b6000610b3b8261094a565b9150610b468361094a565b9250828201905080821115610b5e57610b5d610b01565b5b92915050565b6000610b6f8261094a565b9150610b7a8361094a565b9250828202610b888161094a565b91508282048414831517610b9f57610b9e610b01565b5b5092915050565b7f4e487b7100000000000000000000000000000000000000000000000000000000600052601260045260246000fd5b6000610be08261094a565b9150610beb8361094a565b925082610bfb57610bfa610ba6565b5b828204905092915050565b6000604082019050610c1b6000830185610954565b610c286020830184610954565b9392505050565b7f496e73756666696369656e742062616c616e6365000000000000000000000000600082015250565b6000610c656014836108a3565b9150610c7082610c2f565b602082019050919050565b60006020820190508181036000830152610c9481610c58565b9050919050565b6000610ca68261094a565b9150610cb18361094a565b9250828203905081811115610cc957610cc8610b01565b5b9291505056fea2646970667358221220bd5b10199b3631938b7d6da6580a831fee75880c60b5f776aa9a579a7c6c238b64736f6c634300081c0033",
  "linkReferences": {},
  "deployedLinkReferences": {}
}