{
  "_format": "hh-sol-artifact-1",
  "contractName": "TokenFactory",
  "sourceName": "contracts/TokenFactory.sol",
  "abi": [
    {
      "inputs": [],
      "stateMutability": "nonpayable",
      "type": "constructor"
    },
    {
      "anonymous": false,
      "inputs": [
        {
          "indexed": true,
          "internalType": "address",
          "name": "tokenAddress",
          "type": "address"
        },
        {
          "indexed": false,
          "internalType": "string",
          "name": "name",
          "type": "string"
        },
        {
          "indexed": false,
          "internalType": "string",
          "name": "symbol",
          "type": "string"
        },
        {
          "indexed": true,
          "internalType": "address",
          "name": "creator",
          "type": "address"
        },
        {
          "indexed": false,
          "internalType": "uint256",
          "name": "index",
          "type": "uint256"
        }
      ],
      "name": "TokenCreated",
      "type": "event"
    },
    {
      "inputs": [
        {
          "internalType": "string",
          "name": "_name",
          "type": "string"
        },
        {
          "internalType": "string",
          "name": "_symbol",
          "type": "string"
        },
        {
          "internalType": "string",
          "name": "_description",
          "type": "string"
        },
        {
          "internalType": "string",
          "name": "_imageUrl",
          "type": "string"
        }
      ],
      "name": "createToken",
      "outputs": [
        {
          "internalType": "address",
          "name": "",
          "type": "address"
        }
      ],
      "stateMutability": "payable",
      "type": "function"
    },
    {
      "inputs": [],
      "name": "creationFee",
      "outputs": [
        {
          "internalType": "uint256",
          "name": "",
          "type": "uint256"
        }
      ],
      "stateMutability": "view",
      "type": "function"
    },
    {
      "inputs": [
        {
          "internalType": "address",
          "name": "",
          "type": "address"
        },
        {
          "internalType": "uint256",
          "name": "",
          "type": "uint256"
        }
      ],
      "name": "creatorTokens",
      "outputs": [
        {
          "internalType": "address",
          "name": "",
          "type": "address"
        }
      ],
      "stateMutability": "view",
      "type": "function"
    },
    {
      "inputs": [
        {
          "internalType": "address",
          "name": "creator",
          "type": "address"
        }
      ],
      "name": "getCreatorTokens",
      "outputs": [
        {
          "internalType": "address[]",
          "name": "",
          "type": "address[]"
        }
      ],
      "stateMutability": "view",
      "type": "function"
    },
    {
      "inputs": [],
      "name": "getTokenCount",
      "outputs": [
        {
          "internalType": "uint256",
          "name": "",
          "type": "uint256"
        }
      ],
      "stateMutability": "view",
      "type": "function"
    },
    {
      "inputs": [],
      "name": "getTokens",
      "outputs": [
        {
          "components": [
            {
              "internalType": "address",
              "name": "tokenAddress",
              "type": "address"
            },
            {
              "internalType": "string",
              "name": "name",
              "type": "string"
            },
            {
              "internalType": "string",
              "name": "symbol",
              "type": "string"
            },
            {
              "internalType": "string",
              "name": "description",
              "type": "string"
            },
            {
              "internalType": "string",
              "name": "imageUrl",
              "type": "string"
            },
            {
              "internalType": "address",
              "name": "creator",
              "type": "address"
            },
            {
              "internalType": "uint256",
              "name": "createdAt",
              "type": "uint256"
            }
          ],
          "internalType": "struct TokenFactory.TokenInfo[]",
          "name": "",
          "type": "tuple[]"
        }
      ],
      "stateMutability": "view",
      "type": "function"
    },
    {
      "inputs": [],
      "name": "owner",
      "outputs": [
        {
          "internalType": "address",
          "name": "",
          "type": "address"
        }
      ],
      "stateMutability": "view",
      "type": "function"
    },
    {
      "inputs": [
        {
          "internalType": "uint256",
          "name": "",
          "type": "uint256"
        }
      ],
      "name": "tokens",
      "outputs": [
        {
          "internalType": "address",
          "name": "tokenAddress",
          "type": "address"
        },
        {
          "internalType": "string",
          "name": "name",
          "type": "string"
        },
        {
          "internalType": "string",
          "name": "symbol",
          "type": "string"
        },
        {
          "internalType": "string",
          "name": "description",
          "type": "string"
        },
        {
          "internalType": "string",
          "name": "imageUrl",
          "type": "string"
        },
        {
          "internalType": "address",
          "name": "creator",
          "type": "address"
        },
        {
          "internalType": "uint256",
          "name": "createdAt",
          "type": "uint256"
        }
      ],
      "stateMutability": "view",
      "type": "function"
    },
    {
      "inputs": [],
      "name": "withdrawFees",
      "outputs": [],
      "stateMutability": "nonpayable",
      "type": "function"
    }
  ],
  "bytecode": "0x608060405266038d7ea4c68000600055348015601a57600080fd5b5033600160006101000a81548173ffffffffffffffffffffffffffffffffffffffff021916908373ffffffffffffffffffffffffffffffffffffffff160217905550612dd08061006b6000396000f3fe6080604052600436106100865760003560e01c80638da5cb5b116100595780638da5cb5b1461014d578063a076965914610178578063aa6ca808146101a8578063db3fa4cc146101d3578063dce0b4e41461021057610086565b8063476343ee1461008b5780634f64b2be146100a257806374abfa54146100e557806378a8956714610122575b600080fd5b34801561009757600080fd5b506100a061023b565b005b3480156100ae57600080fd5b506100c960048036038101906100c49190610e1e565b610336565b6040516100dc9796959493929190610f2b565b60405180910390f35b3480156100f157600080fd5b5061010c60048036038101906101079190610fe2565b6105e8565b60405161011991906110cd565b60405180910390f35b34801561012e57600080fd5b506101376106b5565b60405161014491906110ef565b60405180910390f35b34801561015957600080fd5b506101626106c2565b60405161016f919061110a565b60405180910390f35b610192600480360381019061018d919061125a565b6106e8565b60405161019f919061110a565b60405180910390f35b3480156101b457600080fd5b506101bd610a16565b6040516101ca91906114fd565b60405180910390f35b3480156101df57600080fd5b506101fa60048036038101906101f5919061151f565b610d73565b604051610207919061110a565b60405180910390f35b34801561021c57600080fd5b50610225610dc1565b60405161023291906110ef565b60405180910390f35b600160009054906101000a900473ffffffffffffffffffffffffffffffffffffffff1673ffffffffffffffffffffffffffffffffffffffff163373ffffffffffffffffffffffffffffffffffffffff16146102cb576040517f08c379a00000000000000000000000000000000000000000000000000000000081526004016102c2906115ab565b60405180910390fd5b600160009054906101000a900473ffffffffffffffffffffffffffffffffffffffff1673ffffffffffffffffffffffffffffffffffffffff166108fc479081150290604051600060405180830381858888f19350505050158015610333573d6000803e3d6000fd5b50565b6002818154811061034657600080fd5b90600052602060002090600702016000915090508060000160009054906101000a900473ffffffffffffffffffffffffffffffffffffffff169080600101805461038f906115fa565b80601f01602080910402602001604051908101604052809291908181526020018280546103bb906115fa565b80156104085780601f106103dd57610100808354040283529160200191610408565b820191906000526020600020905b8154815290600101906020018083116103eb57829003601f168201915b50505050509080600201805461041d906115fa565b80601f0160208091040260200160405190810160405280929190818152602001828054610449906115fa565b80156104965780601f1061046b57610100808354040283529160200191610496565b820191906000526020600020905b81548152906001019060200180831161047957829003601f168201915b5050505050908060030180546104ab906115fa565b80601f01602080910402602001604051908101604052809291908181526020018280546104d7906115fa565b80156105245780601f106104f957610100808354040283529160200191610524565b820191906000526020600020905b81548152906001019060200180831161050757829003601f168201915b505050505090806004018054610539906115fa565b80601f0160208091040260200160405190810160405280929190818152602001828054610565906115fa565b80156105b25780601f10610587576101008083540402835291602001916105b2565b820191906000526020600020905b81548152906001019060200180831161059557829003601f168201915b5050505050908060050160009054906101000a900473ffffffffffffffffffffffffffffffffffffffff16908060060154905087565b6060600360008373ffffffffffffffffffffffffffffffffffffffff1673ffffffffffffffffffffffffffffffffffffffff1681526020019081526020016000208054806020026020016040519081016040528092919081815260200182805480156106a957602002820191906000526020600020905b8160009054906101000a900473ffffffffffffffffffffffffffffffffffffffff1673ffffffffffffffffffffffffffffffffffffffff168152602001906001019080831161065f575b50505050509050919050565b6000600280549050905090565b600160009054906101000a900473ffffffffffffffffffffffffffffffffffffffff1681565b6000805434101561072e576040517f08c379a000000000000000000000000000000000000000000000000000000000815260040161072590611677565b60405180910390fd5b6000858585853360405161074190610dc7565b61074f959493929190611697565b604051809103906000f08015801561076b573d6000803e3d6000fd5b50905060006040518060e001604052808373ffffffffffffffffffffffffffffffffffffffff1681526020018881526020018781526020018681526020018581526020013373ffffffffffffffffffffffffffffffffffffffff168152602001428152509050600281908060018154018082558091505060019003906000526020600020906007020160009091909190915060008201518160000160006101000a81548173ffffffffffffffffffffffffffffffffffffffff021916908373ffffffffffffffffffffffffffffffffffffffff160217905550602082015181600101908161085991906118b2565b50604082015181600201908161086f91906118b2565b50606082015181600301908161088591906118b2565b50608082015181600401908161089b91906118b2565b5060a08201518160050160006101000a81548173ffffffffffffffffffffffffffffffffffffffff021916908373ffffffffffffffffffffffffffffffffffffffff16021790555060c082015181600601555050600360003373ffffffffffffffffffffffffffffffffffffffff1673ffffffffffffffffffffffffffffffffffffffff168152602001908152602001600020829080600181540180825580915050600190039060005260206000200160009091909190916101000a81548173ffffffffffffffffffffffffffffffffffffffff021916908373ffffffffffffffffffffffffffffffffffffffff1602179055503373ffffffffffffffffffffffffffffffffffffffff168273ffffffffffffffffffffffffffffffffffffffff167fcd67a7c35df376bb0365a3982c67488f0ab148116a9514897f52c7c82507c031898960016002805490506109f291906119b3565b604051610a01939291906119e7565b60405180910390a38192505050949350505050565b60606002805480602002602001604051908101604052809291908181526020016000905b82821015610d6a57838290600052602060002090600702016040518060e00160405290816000820160009054906101000a900473ffffffffffffffffffffffffffffffffffffffff1673ffffffffffffffffffffffffffffffffffffffff1673ffffffffffffffffffffffffffffffffffffffff168152602001600182018054610ac3906115fa565b80601f0160208091040260200160405190810160405280929190818152602001828054610aef906115fa565b8015610b3c5780601f10610b1157610100808354040283529160200191610b3c565b820191906000526020600020905b815481529060010190602001808311610b1f57829003601f168201915b50505050508152602001600282018054610b55906115fa565b80601f0160208091040260200160405190810160405280929190818152602001828054610b81906115fa565b8015610bce5780601f10610ba357610100808354040283529160200191610bce565b820191906000526020600020905b815481529060010190602001808311610bb157829003601f168201915b50505050508152602001600382018054610be7906115fa565b80601f0160208091040260200160405190810160405280929190818152602001828054610c13906115fa565b8015610c605780601f10610c3557610100808354040283529160200191610c60565b820191906000526020600020905b815481529060010190602001808311610c4357829003601f168201915b50505050508152602001600482018054610c79906115fa565b80601f0160208091040260200160405190810160405280929190818152602001828054610ca5906115fa565b8015610cf25780601f10610cc757610100808354040283529160200191610cf2565b820191906000526020600020905b815481529060010190602001808311610cd557829003601f168201915b505050505081526020016005820160009054906101000a900473ffffffffffffffffffffffffffffffffffffffff1673ffffffffffffffffffffffffffffffffffffffff1673ffffffffffffffffffffffffffffffffffffffff16815260200160068201548152505081526020019060010190610a3a565b50505050905090565b60036020528160005260406000208181548110610d8f57600080fd5b906000526020600020016000915091509054906101000a900473ffffffffffffffffffffffffffffffffffffffff1681565b60005481565b61136e80611a2d83390190565b6000604051905090565b600080fd5b600080fd5b6000819050919050565b610dfb81610de8565b8114610e0657600080fd5b50565b600081359050610e1881610df2565b92915050565b600060208284031215610e3457610e33610dde565b5b6000610e4284828501610e09565b91505092915050565b600073ffffffffffffffffffffffffffffffffffffffff82169050919050565b6000610e7682610e4b565b9050919050565b610e8681610e6b565b82525050565b600081519050919050565b600082825260208201905092915050565b60005b83811015610ec6578082015181840152602081019050610eab565b60008484015250505050565b6000601f19601f8301169050919050565b6000610eee82610e8c565b610ef88185610e97565b9350610f08818560208601610ea8565b610f1181610ed2565b840191505092915050565b610f2581610de8565b82525050565b600060e082019050610f40600083018a610e7d565b8181036020830152610f528189610ee3565b90508181036040830152610f668188610ee3565b90508181036060830152610f7a8187610ee3565b90508181036080830152610f8e8186610ee3565b9050610f9d60a0830185610e7d565b610faa60c0830184610f1c565b98975050505050505050565b610fbf81610e6b565b8114610fca57600080fd5b50565b600081359050610fdc81610fb6565b92915050565b600060208284031215610ff857610ff7610dde565b5b600061100684828501610fcd565b91505092915050565b600081519050919050565b600082825260208201905092915050565b6000819050602082019050919050565b61104481610e6b565b82525050565b6000611056838361103b565b60208301905092915050565b6000602082019050919050565b600061107a8261100f565b611084818561101a565b935061108f8361102b565b8060005b838110156110c05781516110a7888261104a565b97506110b283611062565b925050600181019050611093565b5085935050505092915050565b600060208201905081810360008301526110e7818461106f565b905092915050565b60006020820190506111046000830184610f1c565b92915050565b600060208201905061111f6000830184610e7d565b92915050565b600080fd5b600080fd5b7f4e487b7100000000000000000000000000000000000000000000000000000000600052604160045260246000fd5b61116782610ed2565b810181811067ffffffffffffffff821117156111865761118561112f565b5b80604052505050565b6000611199610dd4565b90506111a5828261115e565b919050565b600067ffffffffffffffff8211156111c5576111c461112f565b5b6111ce82610ed2565b9050602081019050919050565b82818337600083830152505050565b60006111fd6111f8846111aa565b61118f565b9050828152602081018484840111156112195761121861112a565b5b6112248482856111db565b509392505050565b600082601f83011261124157611240611125565b5b81356112518482602086016111ea565b91505092915050565b6000806000806080858703121561127457611273610dde565b5b600085013567ffffffffffffffff81111561129257611291610de3565b5b61129e8782880161122c565b945050602085013567ffffffffffffffff8111156112bf576112be610de3565b5b6112cb8782880161122c565b935050604085013567ffffffffffffffff8111156112ec576112eb610de3565b5b6112f88782880161122c565b925050606085013567ffffffffffffffff81111561131957611318610de3565b5b6113258782880161122c565b91505092959194509250565b600081519050919050565b600082825260208201905092915050565b6000819050602082019050919050565b600082825260208201905092915050565b600061137982610e8c565b611383818561135d565b9350611393818560208601610ea8565b61139c81610ed2565b840191505092915050565b6113b081610de8565b82525050565b600060e0830160008301516113ce600086018261103b565b50602083015184820360208601526113e6828261136e565b91505060408301518482036040860152611400828261136e565b9150506060830151848203606086015261141a828261136e565b91505060808301518482036080860152611434828261136e565b91505060a083015161144960a086018261103b565b5060c083015161145c60c08601826113a7565b508091505092915050565b600061147383836113b6565b905092915050565b6000602082019050919050565b600061149382611331565b61149d818561133c565b9350836020820285016114af8561134d565b8060005b858110156114eb57848403895281516114cc8582611467565b94506114d78361147b565b925060208a019950506001810190506114b3565b50829750879550505050505092915050565b600060208201905081810360008301526115178184611488565b905092915050565b6000806040838503121561153657611535610dde565b5b600061154485828601610fcd565b925050602061155585828601610e09565b9150509250929050565b7f4e6f74206f776e65720000000000000000000000000000000000000000000000600082015250565b6000611595600983610e97565b91506115a08261155f565b602082019050919050565b600060208201905081810360008301526115c481611588565b9050919050565b7f4e487b7100000000000000000000000000000000000000000000000000000000600052602260045260246000fd5b6000600282049050600182168061161257607f821691505b602082108103611625576116246115cb565b5b50919050565b7f496e73756666696369656e74206372656174696f6e2066656500000000000000600082015250565b6000611661601983610e97565b915061166c8261162b565b602082019050919050565b6000602082019050818103600083015261169081611654565b9050919050565b600060a08201905081810360008301526116b18188610ee3565b905081810360208301526116c58187610ee3565b905081810360408301526116d98186610ee3565b905081810360608301526116ed8185610ee3565b90506116fc6080830184610e7d565b9695505050505050565b60008190508160005260206000209050919050565b60006020601f8301049050919050565b600082821b905092915050565b6000600883026117687fffffffffffffffffffffffffffffffffffffffffffffffffffffffffffffffff8261172b565b611772868361172b565b95508019841693508086168417925050509392505050565b6000819050919050565b60006117af6117aa6117a584610de8565b61178a565b610de8565b9050919050565b6000819050919050565b6117c983611794565b6117dd6117d5826117b6565b848454611738565b825550505050565b600090565b6117f26117e5565b6117fd8184846117c0565b505050565b5b81811015611821576118166000826117ea565b600181019050611803565b5050565b601f8211156118665761183781611706565b6118408461171b565b8101602085101561184f578190505b61186361185b8561171b565b830182611802565b50505b505050565b600082821c905092915050565b60006118896000198460080261186b565b1980831691505092915050565b60006118a28383611878565b9150826002028217905092915050565b6118bb82610e8c565b67ffffffffffffffff8111156118d4576118d361112f565b5b6118de82546115fa565b6118e9828285611825565b600060209050601f83116001811461191c576000841561190a578287015190505b6119148582611896565b86555061197c565b601f19841661192a86611706565b60005b828110156119525784890151825560018201915060208501945060208101905061192d565b8683101561196f578489015161196b601f891682611878565b8355505b6001600288020188555050505b505050505050565b7f4e487b7100000000000000000000000000000000000000000000000000000000600052601160045260246000fd5b60006119be82610de8565b91506119c983610de8565b92508282039050818111156119e1576119e0611984565b5b92915050565b60006060820190508181036000830152611a018186610ee3565b90508181036020830152611a158185610ee3565b9050611a246040830184610f1c565b94935050505056fe608060405234801561001057600080fd5b5060405161136e38038061136e83398181016040528101906100329190610290565b8460009081610041919061059c565b508360019081610051919061059c565b508260029081610061919061059c565b508160039081610071919061059c565b5080600460006101000a81548173ffffffffffffffffffffffffffffffffffffffff021916908373ffffffffffffffffffffffffffffffffffffffff160217905550505050505061066e565b6000604051905090565b600080fd5b600080fd5b600080fd5b600080fd5b6000601f19601f8301169050919050565b7f4e487b7100000000000000000000000000000000000000000000000000000000600052604160045260246000fd5b610124826100db565b810181811067ffffffffffffffff82111715610143576101426100ec565b5b80604052505050565b60006101566100bd565b9050610162828261011b565b919050565b600067ffffffffffffffff821115610182576101816100ec565b5b61018b826100db565b9050602081019050919050565b60005b838110156101b657808201518184015260208101905061019b565b60008484015250505050565b60006101d56101d084610167565b61014c565b9050828152602081018484840111156101f1576101f06100d6565b5b6101fc848285610198565b509392505050565b600082601f830112610219576102186100d1565b5b81516102298482602086016101c2565b91505092915050565b600073ffffffffffffffffffffffffffffffffffffffff82169050919050565b600061025d82610232565b9050919050565b61026d81610252565b811461027857600080fd5b50565b60008151905061028a81610264565b92915050565b600080600080600060a086880312156102ac576102ab6100c7565b5b600086015167ffffffffffffffff8111156102ca576102c96100cc565b5b6102d688828901610204565b955050602086015167ffffffffffffffff8111156102f7576102f66100cc565b5b61030388828901610204565b945050604086015167ffffffffffffffff811115610324576103236100cc565b5b61033088828901610204565b935050606086015167ffffffffffffffff811115610351576103506100cc565b5b61035d88828901610204565b925050608061036e8882890161027b565b9150509295509295909350565b600081519050919050565b7f4e487b7100000000000000000000000000000000000000000000000000000000600052602260045260246000fd5b600060028204905060018216806103cd57607f821691505b6020821081036103e0576103df610386565b5b50919050565b60008190508160005260206000209050919050565b60006020601f8301049050919050565b600082821b905092915050565b6000600883026104487fffffffffffffffffffffffffffffffffffffffffffffffffffffffffffffffff8261040b565b610452868361040b565b95508019841693508086168417925050509392505050565b6000819050919050565b6000819050919050565b600061049961049461048f8461046a565b610474565b61046a565b9050919050565b6000819050919050565b6104b38361047e565b6104c76104bf826104a0565b848454610418565b825550505050565b600090565b6104dc6104cf565b6104e78184846104aa565b505050565b5b8181101561050b576105006000826104d4565b6001810190506104ed565b5050565b601f82111561055057610521816103e6565b61052a846103fb565b81016020851015610539578190505b61054d610545856103fb565b8301826104ec565b50505b505050565b600082821c905092915050565b600061057360001984600802610555565b1980831691505092915050565b600061058c8383610562565b9150826002028217905092915050565b6105a58261037b565b67ffffffffffffffff8111156105be576105bd6100ec565b5b6105c882546103b5565b6105d382828561050f565b600060209050601f83116001811461060657600084156105f4578287015190505b6105fe8582610580565b865550610666565b601f198416610614866103e6565b60005b8281101561063c57848901518255600182019150602085019450602081019050610617565b868310156106595784890151610655601f891682610562565b8355505b6001600288020188555050505b505050505050565b610cf18061067d6000396000f3fe60806040526004361061009c5760003560e01c806395d89b411161006457806395d89b411461018a578063a6f2ae3a146101b5578063a932492f146101bf578063aba83150146101ea578063e4849b3214610215578063e75722301461023e5761009c565b806302d05d3f146100a157806306fdde03146100cc57806318160ddd146100f757806370a08231146101225780637284e4161461015f575b600080fd5b3480156100ad57600080fd5b506100b661027b565b6040516100c39190610869565b60405180910390f35b3480156100d857600080fd5b506100e16102a1565b6040516100ee9190610914565b60405180910390f35b34801561010357600080fd5b5061010c61032f565b604051610119919061094f565b60405180910390f35b34801561012e57600080fd5b506101496004803603810190610144919061099b565b610335565b604051610156919061094f565b60405180910390f35b34801561016b57600080fd5b5061017461034d565b6040516101819190610914565b60405180910390f35b34801561019657600080fd5b5061019f6103db565b6040516101ac9190610914565b60405180910390f35b6101bd610469565b005b3480156101cb57600080fd5b506101d46105ad565b6040516101e1919061094f565b60405180910390f35b3480156101f657600080fd5b506101ff6105b6565b60405161020c9190610914565b60405180910390f35b34801561022157600080fd5b5061023c600480360381019061023791906109f4565b610644565b005b34801561024a57600080fd5b50610265600480360381019061026091906109f4565b610803565b604051610272919061094f565b60405180910390f35b600460009054906101000a900473ffffffffffffffffffffffffffffffffffffffff1681565b600080546102ae90610a50565b80601f01602080910402602001604051908101604052809291908181526020018280546102da90610a50565b80156103275780601f106102fc57610100808354040283529160200191610327565b820191906000526020600020905b81548152906001019060200180831161030a57829003601f168201915b505050505081565b60055481565b60066020528060005260406000206000915090505481565b6002805461035a90610a50565b80601f016020809104026020016040519081016040528092919081815260200182805461038690610a50565b80156103d35780601f106103a8576101008083540402835291602001916103d3565b820191906000526020600020905b8154815290600101906020018083116103b657829003601f168201915b505050505081565b600180546103e890610a50565b80601f016020809104026020016040519081016040528092919081815260200182805461041490610a50565b80156104615780601f1061043657610100808354040283529160200191610461565b820191906000526020600020905b81548152906001019060200180831161044457829003601f168201915b505050505081565b600034116104ac576040517f08c379a00000000000000000000000000000000000000000000000000000000081526004016104a390610acd565b60405180910390fd5b60006104b9600554610803565b905060006001826104ca9190610b1c565b670de0b6b3a7640000346104de9190610b50565b6104e89190610bc1565b905080600560008282546104fc9190610b1c565b9250508190555080600660003373ffffffffffffffffffffffffffffffffffffffff1673ffffffffffffffffffffffffffffffffffffffff16815260200190815260200160002060008282546105529190610b1c565b925050819055503373ffffffffffffffffffffffffffffffffffffffff167f1cbc5ab135991bd2b6a4b034a04aa2aa086dac1371cb9b16b8b5e2ed6b036bed82346040516105a1929190610bf2565b60405180910390a25050565b64e8d4a5100081565b600380546105c390610a50565b80601f01602080910402602001604051908101604052809291908181526020018280546105ef90610a50565b801561063c5780601f106106115761010080835404028352916020019161063c565b820191906000526020600020905b81548152906001019060200180831161061f57829003601f168201915b505050505081565b80600660003373ffffffffffffffffffffffffffffffffffffffff1673ffffffffffffffffffffffffffffffffffffffff1681526020019081526020016000205410156106c6576040517f08c379a00000000000000000000000000000000000000000000000000000000081526004016106bd90610c67565b60405180910390fd5b60006106d3600554610803565b90506000670de0b6b3a764000082846106ec9190610b50565b6106f69190610bc1565b9050826005600082825461070a9190610c87565b9250508190555082600660003373ffffffffffffffffffffffffffffffffffffffff1673ffffffffffffffffffffffffffffffffffffffff16815260200190815260200160002060008282546107609190610c87565b925050819055503373ffffffffffffffffffffffffffffffffffffffff166108fc829081150290604051600060405180830381858888f193505050501580156107ad573d6000803e3d6000fd5b503373ffffffffffffffffffffffffffffffffffffffff167fed7a144fad14804d5c249145e3e0e2b63a9eb455b76aee5bc92d711e9bba3e4a84836040516107f6929190610bf2565b60405180910390a2505050565b600064e8d4a5100082836108179190610b50565b6108219190610bc1565b9050919050565b600073ffffffffffffffffffffffffffffffffffffffff82169050919050565b600061085382610828565b9050919050565b61086381610848565b82525050565b600060208201905061087e600083018461085a565b92915050565b600081519050919050565b600082825260208201905092915050565b60005b838110156108be5780820151818401526020810190506108a3565b60008484015250505050565b6000601f19601f8301169050919050565b60006108e682610884565b6108f0818561088f565b93506109008185602086016108a0565b610909816108ca565b840191505092915050565b6000602082019050818103600083015261092e81846108db565b905092915050565b6000819050919050565b61094981610936565b82525050565b60006020820190506109646000830184610940565b92915050565b600080fd5b61097881610848565b811461098357600080fd5b50565b6000813590506109958161096f565b92915050565b6000602082840312156109b1576109b061096a565b5b60006109bf84828501610986565b91505092915050565b6109d181610936565b81146109dc57600080fd5b50565b6000813590506109ee816109c8565b92915050565b600060208284031215610a0a57610a0961096a565b5b6000610a18848285016109df565b91505092915050565b7f4e487b7100000000000000000000000000000000000000000000000000000000600052602260045260246000fd5b60006002820490506001821680610a6857607f821691505b602082108103610a7b57610a7a610a21565b5b50919050565b7f53656e642045544820746f2062757920746f6b656e7300000000000000000000600082015250565b6000610ab760168361088f565b9150610ac282610a81565b602082019050919050565b60006020820190508181036000830152610ae681610aaa565b9050919050565b7f4e487b7100000000000000000000000000000000000000000000000000000000600052601160045260246000fd5b6000610b2782610936565b9150610b3283610936565b9250828201905080821115610b4a57610b49610aed565b5b92915050565b6000610b5b82610936565b9150610b6683610936565b9250828202610b7481610936565b91508282048414831517610b8b57610b8a610aed565b5b5092915050565b7f4e487b7100000000000000000000000000000000000000000000000000000000600052601260045260246000fd5b6000610bcc82610936565b9150610bd783610936565b925082610be757610be6610b92565b5b828204905092915050565b6000604082019050610c076000830185610940565b610c146020830184610940565b9392505050565b7f496e73756666696369656e742062616c616e6365000000000000000000000000600082015250565b6000610c5160148361088f565b9150610c5c82610c1b565b602082019050919050565b60006020820190508181036000830152610c8081610c44565b9050919050565b6000610c9282610936565b9150610c9d83610936565b9250828203905081811115610cb557610cb4610aed565b5b9291505056fea2646970667358221220677d5a591c2408599d2ba4586353d5746356b9d5c34769f2bc03c33c5c5e202364736f6c634300081c0033a26469706673582212204af850a2269cf2f94de605a94db5b025a2a1245d1aeeb1cb17963eb2c8705f5964736f6c634300081c0033",
  "linkReferences": {},
  "deployedLinkReferences": {}
}